:020000040800F2
:10000000485A002065020008A9340008873000081B
:10001000A534000875070008F93C0008000000003E
:10002000000000000000000000000000A501000822
:10003000650900080000000001020008F93400080A
:100040007F0200087F0200087F0200087F0200088C
:100050007F0200087F0200087F0200087F0200087C
:100060007F0200087F0200087F0200087F0200086C
:10007000D5080008E5080008F5080008050900088B
:10008000150900087F0200087F0200089907000890
:1000900079070008890700087F0200087F0200082E
:1000A0007F0200087F0200087F0200087F0200082C
:1000B0007F0200087F020008F13800087F02000874
:1000C0007F0200087F0200087F0200087F0200080C
:1000D0007F0200084D3A0008653A00087D3A0008A2
:1000E0007F0200087F0200087F0200087F020008EC
:1000F0007F0200087F0200087F0200087F020008DC
:100100007F0200087F0200087F0200087F020008CB
:10011000353A00087F0200087F0200080539000810
:100120007F02000825090008350900087F02000841
:100130007F0200080000000000000000C90700085E
:10014000A9070008B90700087F0200087F0200081D
:100150007F0200084509000855090008953A000883
:100160007F0200087F0200087F0200087F0200086B
:100170007F0200087F02000800000000000000006D
:100180007F0200087F020008DFF814D000F0A6FA12
:1001900000F0E0F800480047399A000800F020FA23
:1001A000485A00202C4B19680868B0E8F04F80F3DB
:1001B0000988BFF36F8F4FF0000080F311887047FC
:1001C0000000000008480068006880F308884FF0CD
:1001D000000080F3148862B661B6BFF34F8FBFF39F
:1001E0006F8F00DF00BF00BF08ED00E0DFF80C00FC
:1001F000016841F470010160704700BF88ED00E0C4
:10020000EFF30980BFF36F8F134B1A681EF0100FC6
:1002100008BF20ED108A20E9F04F106009B44FF0BC
:10022000500080F31188BFF34F8FBFF36F8F0AF038
:100230000DFB4FF0000080F3118809BC19680868B5
:10024000B0E8F04F1EF0100F08BFB0EC108A80F33A
:100250000988BFF36F8F7047D8000020EFF3058047
:10026000704700000648804706480047FEE7FEE763
:10027000FEE7FEE7FEE7FEE7FEE7FEE7FEE7FEE756
:10028000E1350008890100082DE9F04117460E46C6
:10029000054633B107FB0354E41B2046B047A54293
:1002A000FAD1A5F10800BDE8F0812DE9F05F05461F
:1002B000002092469B4688460646814640241BE025
:1002C000284641464746224600F063F953465A46BF
:1002D000C01A914110D311461846224600F04AF93F
:1002E0002D1A67EB01084F4622460120002100F03D
:1002F00041F917EB00094E41201EA4F10104DFDC97
:10030000484631462A464346BDE8F09F40EA01038D
:100310009B0703D009E008C9121F08C0042AFAD2BB
:1003200003E011F8013B00F8013B521EF9D270477F
:10033000D2B201E000F8012B491EFBD27047002227
:10034000F6E710B513460A4604461946FFF7F0FFD4
:10035000204610BD70B5054C054D03E020682044D3
:100360008047241DAC42F9D170BD00001CB80008C4
:1003700024B800082DE9F041074615460E46102026
:1003800009F090FB04000AD06760C4E9026500F040
:1003900023F90168216004600020BDE8F08101209C
:1003A000FBE72DE9FE4F804681EA0300C00F0C46B3
:1003B000009021F0004123F00045B8EB0200A94174
:1003C00005D24046214690461C460B46024623F085
:1003D0000040104347D0270DC7F30A00C3F30A516A
:1003E0000290401A019040286BDAC3F3130040F4E6
:1003F000801B0098924620B10023D2EB030A63EBE6
:100400000B0B01985946C0F14002504600F0B2F87B
:1004100006460D4650465946019A00F0CAF810EBC0
:1004200008006141002487EA115284EAE7731A4305
:1004300040D0009A62B3019A012A4FEA075215DCB4
:10044000001B61EB02014FF0004202EA0752CDE9C6
:100450000042001C41F5801132462B4600F0F0F8B6
:1004600003B0BDE8F08F40462146F9E7001B61EB81
:100470000201001C41F5801300185B412018A2F511
:10048000001747EB030140EAD570B6196D4111E042
:100490006D084FEA360645EAC0754FEA0752001B61
:1004A00061EB0201001C41F5801149084FEA300060
:1004B0000019514132462B4603B0BDE8F04F00F021
:1004C000B0B80098012240000023D0EB020263EB99
:1004D000E073009821464FEAE074B8EB000061EB4E
:1004E0000401E9E783F000435BE781F0004158E74E
:1004F00020F00040C20DC0F3160040F400007F2A37
:1005000002DA0020014670470021962A03DCC2F17E
:100510009602D0407047963A00F02CB800F00042A6
:1005200030F000400AD0C10D01F56071C0F3160033
:1005300042EA0151C20840071143704700200146BA
:100540007047000030B5041E71F1000404DB4FF069
:100550000044404264EB0101141E73F1000405DB0A
:100560001C464FF00043524263EB04038B4208BF2A
:10057000824230BD202A04DB203A00FA02F100203A
:1005800070479140C2F1200320FA03F319439040D1
:100590007047202A04DB203A21FA02F0002170473C
:1005A00021FA02F3D040C2F12002914008431946DB
:1005B0007047202A06DBCB17203A41FA02F043EAC3
:1005C000E07306E041FA02F3D040C2F1200291400C
:1005D000084319467047000000487047600100203A
:1005E0002DE9F0410646FFF7F7FF8046454613E048
:1005F00016B1E068B0420ED120682860D4E901014C
:10060000D8F800708847204609F0EEF9D8F80000C5
:10061000B842EBD100E025462C68002CE8D1BDE8BB
:10062000F08110B5141E73F1000408DA401C41F18A
:10063000000192185B411A4301D120F0010010BD66
:100640002DE9F04D92469B4611B1B1FA81F202E0DC
:10065000B0FA80F220329046FFF78CFF04460F4636
:1006600040EA0A0041EA0B0153465A46084313D0B8
:10067000114653EA010019D0C8F140025046FFF775
:1006800088FF05460E46504659464246FFF772FF20
:10069000084305D0012004E020463946BDE8F08D2E
:1006A0000020054346EAE0762C4337430A98630569
:1006B000E40AA0EB08000022FD0A44EA47540A308D
:1006C00002D500200146E9E7010510196941DDE97D
:1006D000084500196941BDE8F04DA2E7064C074DF9
:1006E00006E0E06840F0010394E807009847103402
:1006F000AC42F6D3FFF74CFDFCB700081CB800086D
:10070000704770B58C1810F8015B15F0070301D124
:1007100010F8013B2A1106D110F8012B03E010F864
:10072000016B01F8016B5B1EF9D12B0705D4002387
:10073000521E0DD401F8013BFAE710F8013BCB1A29
:10074000921C03E013F8015B01F8015B521EF9D51E
:10075000A142D8D3002070BD10B5044614237022E6
:1007600002490348FFF790FD10BD0000999700086B
:10077000C00D002000BFFEE710B5024800F002FBEC
:1007800010BD0000A004002010B5024800F0FAFAE5
:1007900010BD0000A004002010B5024800F0F2FADD
:1007A00010BD0000A004002010B5024800F0EAFAD5
:1007B00010BD0000C804002010B5024800F0E2FAA5
:1007C00010BD0000C804002010B5024800F0DAFA9D
:1007D00010BD0000C8040020F0B58BB007460C46E1
:1007E00015461E4604F0020080B1E8040190E800BE
:1007F00004F0030140EA41000290F0040390F0008D
:1008000004F0030140EA4100049009E0680101900E
:10081000A007400F029070010390A007400F0490C2
:10082000E0100690C4F3800005900120099000209C
:100830000790012008900E200A9001A9384600F088
:1008400051F90BB0F0BD000070B504460D462046CE
:1008500000F0ADFD2068406940F002002168486169
:100860002068406940F0100021684861084920680C
:10087000884203D107480560002070BD0649206802
:10088000884203D1054805600020F6E70120F4E71F
:100890000064004048010020006800404C01002036
:1008A000F8B506460C4617461D4609480460002068
:1008B000074948608860C860084605616B463A464B
:1008C000304600F063F808B10020F8BD0120FCE7D5
:1008D000D053002010B5024800F008FE10BD000003
:1008E0005008002010B5024800F000FE10BD0000C6
:1008F0007006002010B5024800F0F8FD10BD0000A1
:10090000B008002010B5024800F0F0FD10BD000056
:10091000D006002010B5024800F0E8FD10BD000030
:10092000F007002010B5024800F0E0FD10BD000007
:100930001009002010B5024800F0D8FD10BD0000DD
:100940003007002010B5024800F0D0FD10BD0000B7
:100950007009002010B5024800F0C8FD10BD00006D
:10096000900700207047704700BFFEE700BFFEE71A
:10097000044800680068406A03490968C1EB014106
:1009800008447047400100203C010020F0B50446B7
:100990000D461E4694F8207020688368A86800B948
:1009A00000E000BF012F01D0022F7CD103F0806056
:1009B00030B903F0006018B903F08050002873D0FC
:1009C000C3F30161022905D9606A40F40000606246
:1009D0000120F0BD012088403060A86860B9B5F8FA
:1009E00000C0E86840EA4C5C206800F5C07000EB8D
:1009F0000110C0F800C00FE0D5E901C040EACC000A
:100A0000D5F80CC040EA0C00D4F800C00CF5C07C4E
:100A10000CEB011CCCF80000D5F810C0206800F5E4
:100A2000C07000EB0110C0F804C0287D01280ED171
:100A3000206800F5C07000EB0110406840F4807C35
:100A4000206800F5C07000EB0110C0F804C0D07938
:100A5000000692F806C040EA0C4092F805C040EA51
:100A60000C2C10794CEA000C206800F5C07000EBEB
:100A70000110C0F80CC0D078000692F802C040EA1D
:100A80000C4092F801C040EA0C2092F800C040EA05
:100A90000C00D4F800C00CF5C07C0CEB011CCCF8A9
:100AA0000800206801E016E00FE000F5C07000EBE0
:100AB0000110006840F0010C206800F5C07000EBE8
:100AC0000110C0F800C0002083E7606A40F4001005
:100AD000606201207DE7606A40F48020606201204E
:100AE00077E70000F0B504460A46216894F82050E4
:100AF000012D01D0022D7ED1424901F50071086817
:100B000040F001000860086820F47C500860086824
:100B1000566A40EA06200860107D00F01F0601209A
:100B200000FA06F3C8699843C861A1F50071D0695D
:100B3000C8B9D1F80C029843C1F80C02908880B271
:100B4000968940EA064601F51070576940F837600B
:100B5000108880B2168940EA064601F51070576980
:100B600000EBC7004660D069012819D1D1F80C020A
:100B70001843C1F80C02908880B2168840EA0646F5
:100B800001F51070576940F83760908980B2168976
:100B900040EA064601F51070576900EBC700466051
:100BA000906928B9D1F804029843C1F8040204E01E
:100BB000D1F804021843C1F80402106928B9D1F829
:100BC00014029843C1F8140204E0D1F81402184347
:100BD000C1F81402106A012804D1D1F81C0218438C
:100BE000C1F81C02D1F8000220F00100C1F8000297
:100BF0000020F0BDFFE7606A40F4802060620120C1
:100C0000F7E7000000640040704770B5044694F8B0
:100C10002050012D01D0022D7DD151B92068C0682E
:100C200000F0030080B9606A40F4001060620120A7
:100C300070BD2068006900F0030028B9606A40F4C4
:100C4000001060620120F3E7206800F5D87000EB27
:100C50000110006800F004009060906840B92068BE
:100C600000F5D87000EB01100068400D106007E03F
:100C7000206800F5D87000EB01100068C0085060D3
:100C8000206800F5D87000EB0110006800F0020049
:100C9000D060206800F5D87000EB0110406800F0CB
:100CA0000F001061206800F5D87000EB011040685B
:100CB00000F47F40000A9061206800F5D87000EBD6
:100CC00001104068000C5061206800F5D87000EBFE
:100CD000011080681870206800F5D87000EB0110D2
:100CE000806800F47F40000A5870206800F5D870D2
:100CF00000EB0110806800F47F00000C9870206801
:100D000000F5D87000EB01108068000ED8702068E4
:100D100000F5D87000E02FE000EB0110C0681871FA
:100D2000206800F5D87000EB0110C06800F47F4027
:100D3000000A5871206800F5D87000EB0110C068F7
:100D400000F47F00000C9871206800F5D87000EB6B
:100D50000110C068000ED87131B92068C06840F039
:100D600020002668F06005E02068006940F020005F
:100D70002668306100205BE7606A40F48020606292
:100D8000012055E72DE9F05F0446002520684669FB
:100D90002068D0F80490206887682068D0F80CA0FC
:100DA0002068D0F810B02068D0F8188006F0010054
:100DB000002855D007F00100C0B1012021688860EB
:100DC00007F0020018B1204600F021FB0EE007F00A
:100DD000040010B145F4006508E007F0080010B108
:100DE00045F4805502E0204600F010FB07F48070C7
:100DF000C8B14FF480702168886007F4007018B1A2
:100E0000204600F006FB0EE007F4806010B145F4C8
:100E1000005508E007F4006010B145F4804502E099
:100E2000204600F0F5FA07F48030C8B14FF4803066
:100E30002168886007F4003018B1204600F0EBFA12
:100E40000EE007F4802010B145F4004508E007F4F7
:100E5000002010B145F4803502E0204600F0DAFAB7
:100E600006F0080038B10AF0100020B145F4007512
:100E700010202168C86006F0040040B10AF00800A4
:100E800028B108202168C860204600F02FFA06F03B
:100E9000020038B12068C06800F0030010B120469D
:100EA00000F026FA06F0400038B10BF0100020B137
:100EB00045F4806510202168086106F0200040B1EB
:100EC0000BF0080028B1082021680861204600F0D6
:100ED0003DFA06F0100038B12068006900F0030008
:100EE00010B1204600F034FA06F4003040B109F0A9
:100EF000100028B1102021684860204600F056FA02
:100F000006F4803040B109F0080028B108202168BB
:100F10004860204600F080FA06F4004088B309F0EB
:100F2000040078B306F4807020B108F0010008B125
:100F300045F0010506F4007020B108F0020008B188
:100F400045F0020506F4806020B108F0040008B105
:100F500045F0040506F40060A0B108F0700088B107
:100F600008F07000402817D006DC10280BD020288D
:100F70000CD0302819D10CE0502810D0602814D1A2
:100F800010E01DE019E045F008050FE045F0100500
:100F90000CE045F0200509E045F0400506E045F08D
:100FA000800503E045F4807500E000BF00BF2068C5
:100FB000806920F070002168886104202168486001
:100FC0002DB1606A284360622046FFF71DFEBDE830
:100FD000F09F70B504460CB9012070BD94F8200054
:100FE00010B9204600F0B0F82068006820F0020038
:100FF0002168086000F068FD05460DE000F064FD22
:10100000401B0A2808D9606A40F40030606205205D
:1010100084F820000120E0E72068406800F002002A
:101020000028EBD12068006840F0010021680860CA
:1010300000F04AFD05460DE000F046FD401B0A2881
:1010400008D9606A40F400306062052084F820000E
:101050000120C2E72068406800F001000028EBD0C2
:10106000207E012806D12068006840F080002168B9
:10107000086005E02068006820F0800021680860B2
:10108000607E012806D12068006840F04000216899
:10109000086005E02068006820F0400021680860D2
:1010A000A07E012806D12068006840F02000216859
:1010B000086005E02068006820F0200021680860D2
:1010C000E07E012806D12068006820F01000216829
:1010D000086005E02068006840F0100021680860A2
:1010E000207F012806D12068006840F008002168B0
:1010F000086005E02068006820F0080021680860AA
:10110000607F012806D12068006840F00400216853
:10111000086005E02068006820F00400216808608D
:10112000D4E9020108432169084361690843616801
:10113000491E08432168C86100206062012084F8CC
:101140002000002049E7000010B586B004461421B5
:1011500001A8FFF7F4F85F492068884252D15E4841
:101160000068401C5C4908600846006801280FD1EF
:1011700000BF002000905948006840F000705749B7
:1011800008600846006800F00070009000BF00BFD3
:1011900000BF0020009051481038006840F0010066
:1011A0004E49103908600846006800F001000090C0
:1011B00000BF00BF4FF4C0500190022002900020F9
:1011C0000390032004900920059001A9444800F0F1
:1011D0006DFB00220521132000F020FD132000F0FC
:1011E0000DFD00220521142000F018FD142000F050
:1011F00005FD00220521152000F010FD152000F04E
:10120000FDFC65E037492068884261D100BF0020BD
:1012100000903248006840F080603049086008461D
:10122000006800F08060009000BF00BF2A4800689E
:10123000401C294908600846006801280FD100BFFA
:10124000002000902548006840F0007023490860A5
:101250000846006800F00070009000BF00BF00BFAB
:10126000002000901D481038006840F002001B4923
:10127000103908600846006800F00200009000BFC6
:1012800000BF4FF4405001900220029000200390D4
:10129000032004900920059001A9134800F006FBE3
:1012A000002205213F2000F0B9FC3F2000F0A6FC01
:1012B00000220521402000F0B1FC402000F09EFCFF
:1012C00000220521412000F0A9FC412000F096FCFD
:1012D00006B010BD00640040BC0000204038024051
:1012E0000000024000680040000402407047000017
:1012F00010B504461049206888420CD10F4BA3F169
:101300001C0200212046FFF780FC0C481C380C49C9
:10131000096888470FE00B49206888420BD1074BCA
:10132000A3F11C0200212046FFF76FFC03481C3884
:1013300005490968884710BD006400401C5400201E
:1013400048010020006800404C0100207047000068
:1013500010B504461049206888420CD10F4BA3F108
:101360001C0201212046FFF750FC0C481C380C4998
:10137000096888470FE00B49206888420BD1074B6A
:10138000A3F11C0201212046FFF73FFC03481C3853
:1013900005490968884710BD00640040405400209A
:1013A00048010020006800404C010020704770B5E3
:1013B000044694F82000012822D1022084F820005D
:1013C0002068006820F001002168086000F07CFBC4
:1013D00005460DE000F078FB401B0A2808D9606A3A
:1013E00040F400306062052084F82000012070BDC8
:1013F0002068406800F001000028EBD16062F6E749
:10140000606A40F4002060620120F0E77047704796
:101410007047704770477047704770B50446A56DB8
:1014200000F052FB064694F83500022808D08020D0
:10143000606500BF002084F8340000BF012070BD4B
:101440002068006820F01600216808602068406964
:1014500020F0800021684861206C08B9A06C28B198
:101460002068006820F00800216808602068006893
:1014700020F00100216808600FE000F025FB801BD0
:1014800005280AD92020606500BF002084F83400B8
:1014900000BF032084F83500D1E72068006800F021
:1014A00001000028E9D194F85C103F208840A86032
:1014B00000BF002084F8340000BF012084F835000C
:1014C0000020BCE7014691F83500022803D08020B7
:1014D000486501207047052081F8350008680068DC
:1014E00020F001000A6810600020F3E7F8B5044618
:1014F000002000908C4800684FF41651B0FBF1F7C3
:10150000A56D2E6894F85C1008208840304098B192
:101510002068006800F0040070B12068006820F0C6
:1015200004002168086094F85C1008208840A860D6
:10153000606D40F00100606594F85C100120884007
:10154000304068B12068406900F0800040B194F8F4
:101550005C1001208840A860606D40F0020060656A
:1015600094F85C1004208840304068B1206800681E
:1015700000F0020040B194F85C1004208840A8609C
:10158000606D40F00400606594F85C1010208840A5
:10159000304078B32068006800F0080050B394F839
:1015A0005C1010208840A8602068006800F480204B
:1015B00080B12068006800F4002028B9206CC8B110
:1015C0002046216C884715E0A06C98B12046A16C9C
:1015D00088470FE02068006800F4807028B9206810
:1015E000006820F0080021680860206C10B12046D7
:1015F000216C884794F85C102020884030400028F7
:1016000065D02068006800F0100000285FD094F8D2
:101610005C1020208840A86094F83500052828D167
:101620002068006820F01600216808602068406982
:1016300020F0800021684861206C08B9A06C28B1B6
:101640002068006820F008002168086094F85C10A9
:101650003F208840A86000BF002084F8340000BF0D
:10166000012084F83500206D10B12046216D884797
:10167000F8BD2068006800F4802080B12068006810
:1016800000F4002028B9606C10B12046616C8847D6
:101690001DE0E06BD8B12046E16B884717E0206879
:1016A000006800F4807068B92068006820F01000BD
:1016B0002168086000BF002084F8340000BF0120CA
:1016C00084F83500E06B10B12046E16B8847606D0F
:1016D00038B3606D00F00100F0B1052084F83500EA
:1016E0002068006820F001002168086000BF0098B1
:1016F000401C0090B84200D905E02068006800F066
:1017000001000028F3D100BF00BF002084F834009E
:1017100000BF012084F83500E06C10B12046E16C78
:10172000884700BFA4E70000500100202DE9F041E8
:101730000446002500F0C8F9074614B90120BDE8A9
:10174000F081606A00B100BF00BF002084F834005F
:1017500000BF022084F835002068006820F00100F6
:10176000216808600AE000F0AFF9C01B052805D920
:1017700020206065032084F83500E0E720680068D9
:1017800000F001000028EED12068056821480540DE
:10179000D4E901010843E16808432169084361690C
:1017A0000843A1690843E1690843216A08430543E6
:1017B000606A042803D1D4E90B010843054320687B
:1017C00005602068456925F00705606A0543606A81
:1017D00004280DD1A06A0543E06A48B1204607F00D
:1017E00071FA28B140206065012084F83500A6E731
:1017F00020684561204607F0BBFA064694F85C1065
:101800003F208840B06000206065012084F83500EA
:10181000002094E73F8010F02DE9F04704460D4684
:1018200016461F464FF00008D4F8589000BF94F8B1
:101830003400012802D10220BDE8F087012084F89D
:10184000340000BF94F83500012825D1022084F827
:101850003500002060653B4632462946204607F0A9
:101860001BFA94F85C103F208840C9F808002068F3
:10187000006840F0160021680860206C28B12068DC
:10188000006840F00800216808602068006840F0A7
:1018900001002168086006E000BF002084F83400E1
:1018A00000BF4FF002084046C6E70000F8B5024608
:1018B0000B460025002400200021DCE0012606FA6A
:1018C00001F51E6806EA0504AC4273D15E68012E7C
:1018D00008D05E68022E05D05E68112E02D05E68C8
:1018E000122E13D190684F000326BE40B0434F0024
:1018F000DE68BE4030439060506801268E40B043A1
:101900001E79C6F300168E4030435060D0684F00F9
:101910000326BE40B0434F009E68BE403043D060B7
:101920005E68022E02D05E68122E13D1CF0802F13B
:10193000200656F827004E07F70E0F26BE40B0438C
:101940004F07FF0E1E69BE403043CF0802F120064C
:1019500046F8270010684F000326BE40B0431E79AA
:1019600006F003064F00BE40304310605E6806F08C
:101970008056B6F1805F7DD100BF00260096404EB4
:10198000366846F480463E4F3E603E46366806F472
:101990008046009600BF00BF3A4E8F0856F82700D9
:1019A0008E07370F0F26BE40B043374EB24202D1EA
:1019B000002624E05EE0354EB24201D101261EE051
:1019C000334EB24201D1022619E0324EB24201D169
:1019D000032614E0304EB24201D104260FE02F4E10
:1019E000B24201D105260AE02D4EB24201D10626AF
:1019F00005E02C4EB24201D1072600E008268F07F1
:101A00003F0FBE4030431F4E8F0846F82700264E3A
:101A10003068A0435E6806F48036B6F5803F00D19A
:101A20002043214E3060361D3068A0435E6806F4C6
:101A30000036B6F5003F00D120431B4E361D306006
:101A4000361D3068A0435E6806F48016B6F5801F28
:101A500000D12043144E08363060361D3068A04354
:101A60005E6806F40016B6F5001F00D120430E4E46
:101A70000C363060491C1029FFF420AFF8BD00007F
:101A8000443802400838014000000240000402408F
:101A900000080240000C0240001002400014024006
:101AA00000180240001C0240003C0140024613693D
:101AB0000B400BB1012000E0002070470AB18161AA
:101AC00001E00B0483617047014800687047000023
:101AD000540100200348006803490978084401497B
:101AE00008607047540100205C01002010B50D48CB
:101AF000006840F400700B4908600846006840F434
:101B0000806008600846006840F480700860032028
:101B100000F0C2F8002000F007F800F04BF80020B9
:101B200010BD0000003C024070B588B0044600259E
:101B3000002600222146372000F070F8372000F000
:101B40005DF800BF002001901648006840F02000BA
:101B5000144908600846006800F02000019000BFAA
:101B600000BF02A903A800F08FF900F0B5F9450005
:101B70000D48B5FBF0F0461E0C480D49086040F2D8
:101B8000E7310B48C160466000210161816000F0CF
:101B9000BBFC20B9064800F00AFD08B070BD01206A
:101BA000FBE700004038024040420F0000140040B4
:101BB000240C002008B500BF002000900E480068EB
:101BC00040F480400C4908600846006800F48040FA
:101BD000009000BF00BF00BF00200090081F0068F9
:101BE00040F08050091F08600846006800F08050EF
:101BF000009000BF00BF08BD4438024001460846BF
:101C0000002809DB00F01F0301229A4043099B00D2
:101C100003F1E023C3F8002100BF70472DE9F05F16
:101C200080460D461646002707F002FC0746394657
:101C30002A46334601F00700C0F1070ABAF1040F43
:101C400002D94FF0040A01E0C0F1070AD14600F1C1
:101C5000040ABAF1070F02D24FF0000A01E0A0F126
:101C6000030AD4464FF0010A0AFA09FAAAF1010A56
:101C70000AEA020A0AFA0CFA4FF0010B0BFA0CFB03
:101C8000ABF1010B0BEA030B4AEA0B042146404679
:101C900007F0BAFBBDE8F09F00BF00F00702064B5B
:101CA00019684FF6FF031940044B0B4343EA022126
:101CB000014B196000BF70470CED00E00000FA0511
:101CC00000BF00BF00BF00BF00BFBFF34F8F00BF0A
:101CD00000BF00BF0948006800F4E06008490843FD
:101CE000001D0649086000BF00BF00BFBFF34F8F53
:101CF00000BF00BF00BF00BF00BFFDE70CED00E06C
:101D00000000FA0570B504460D460CB9012070BDFF
:101D10005848006800F00F00A84209D255490D70DC
:101D20000846006800F00F00A84201D00120EEE74D
:101D3000207800F0020002281DD1207800F0040075
:101D4000042805D14C48006840F4E0504A49086036
:101D5000207800F00800082805D14748006840F4C2
:101D60006040454908604448006820F0F000A168E0
:101D7000084341490860207800F00100A8B360687A
:101D8000012807D13C4808380068C0F34040B8B982
:101D90000120BCE76068022802D06068032807D1F0
:101DA000354808380068C0F3406048B90120AEE704
:101DB000314808380068C0F3400008B90120A6E7A0
:101DC0002D48006820F00300616808432A49086034
:101DD000FFF77AFE064609E0FFF776FE801B41F228
:101DE0008831884202D9032091E707E02248006841
:101DF00000F00C006168B0EB810FEDD11D48006868
:101E000000F00F00A84209D91A490D700846006871
:101E100000F00F00A84201D0012078E7207800F000
:101E20000400042807D11448006820F4E050E16859
:101E3000084311490860207800F00800082808D1FC
:101E40000D48006820F46040216940EAC1000A4959
:101E5000086000F061F808490968C1F30311074AF6
:101E6000515CC8400649086006480068FFF75CFE00
:101E700000204CE7003C02400838024014B700083C
:101E800050010020580100200F2202600D4A126804
:101E900002F0030242600B4A126802F0F002826014
:101EA000084A126802F4E052C260064A126802F45C
:101EB0006042D2080261044A126802F00F020A600E
:101EC0007047000008380240003C024001480068AA
:101ED000704700005001002000B5FFF7F7FF0449EC
:101EE0000968C1F38221034A515CC84000BD00006B
:101EF0000838024024B7000800B5FFF7E7FF04499F
:101F00000968C1F34231034A515CC84000BD00007A
:101F10000838024024B700082DE9F04700240025C6
:101F20000026A1462548006800F00C0020B10428D6
:101F300005D008283AD105E0DFF8849039E0DFF8D1
:101F4000849036E01D48001F006800F03F041B48E5
:101F5000001F006800F4800078B11A481749091F73
:101F60000968C1F38811A0FB0170014622460023D5
:101F70003846FEF79AF905460EE011480F49091F49
:101F80000968C1F38811A0FB0170014622460023B5
:101F90003846FEF78AF905460848001F0068C0F376
:101FA0000140401C4600B5FBF6F902E0DFF8109056
:101FB00000BF00BF4846BDE8F08700000838024077
:101FC0000024F40040787D01F8B504460CB90120E6
:101FD000F8BD207800F00100002874D0F9480068AE
:101FE00000F00C0004280DD0F648006800F00C004A
:101FF000082813D1F348001F006800F48000B0F5F2
:10200000800F0BD1EF4808380068C0F3404000282B
:1020100059D06068002856D10120D9E700BF606818
:10202000B0F5803F08D1E7480838006840F48030B8
:10203000E449083908601EE06068B0F5A02F0DD1B2
:10204000E0480838006840F48020DE49083908601C
:102050000846006840F4803008600CE0D948083831
:10206000006820F48030D7490839086008460068C5
:1020700020F48020086000BF606890B1FFF724FD65
:10208000054606E0FFF720FD401B642801D9032028
:102090009EE7CC4808380068C0F340400028F1D0E3
:1020A00011E0FFF711FD054606E0FFF70DFD401BAF
:1020B000642801D903208BE7C24808380068C0F3C0
:1020C00040400028F1D1207800F0020002285FD1C2
:1020D000BC48006800F00C0058B1BA48006800F035
:1020E0000C0008281CD1B748001F006800F48000CD
:1020F000B0B9B44808380068C0F3400020B1E068C7
:10210000012801D0012063E7AE480838006820F0BC
:10211000F800216940EAC100AA490839086037E09F
:10212000E06800B30120A8490860FFF7CDFC054630
:1021300006E0FFF7C9FC401B022801D9032047E74E
:10214000A04808380068C0F340000028F1D09D483E
:102150000838006820F0F800216940EAC100994978
:102160000839086014E0002097490860FFF7ACFCCC
:10217000054606E0FFF7A8FC401B022801D9032012
:1021800026E7904808380068C0F340000028F1D1E5
:10219000207800F0080008282CD16069A8B101203F
:1021A0008A490860FFF790FC054606E0FFF78CFCC3
:1021B000401B022801D903200AE782486C300068DE
:1021C000C0F340000028F1D014E000207F490860EF
:1021D000FFF77AFC054606E0FFF776FC401B022875
:1021E00001D90320F4E677486C300068C0F3400062
:1021F0000028F1D1207800F00400042870D10027D5
:1022000070483830006800F0805090B900BF00205E
:1022100000906C483830006840F08050694938318F
:1022200008600846006800F08050009000BF00BFC2
:1022300001276748006800F48070B0B964480068FE
:1022400040F4807062490860FFF73EFC054606E0F6
:10225000FFF73AFC401B022801D90320B8E65C488E
:10226000006800F480700028F2D000BFA068012848
:1022700008D154486830006840F001005149683185
:1022800008601DE0A06805280DD14E486830006840
:1022900040F004004B49683108600846006840F08F
:1022A000010008600CE047486830006820F0010039
:1022B0004449683108600846006820F0040008605E
:1022C00000BFA068A8B1FFF7FFFB054609E0FFF7D4
:1022D000FBFB401B41F28831884202D9032077E69C
:1022E00026E0384868300068C0F340000028EED08F
:1022F00013E0FFF7E9FB054608E0FFF7E5FB401BAD
:1023000041F28831884201D9032061E62D486830C6
:102310000068C0F340000028EFD1012F07D1294801
:102320003830006820F0805026493831086000BFFE
:10233000A069002845D02348006800F00C00082858
:102340005DD0A069022845D100201F490866FFF72B
:10235000BBFB054606E0FFF7B7FB401B022801D98F
:10236000032035E6174808380068C0F340600028AD
:10237000F1D1D4E907010843616A40EA81110122E1
:10238000A06AC2EB500041EA00412C20005D41EA06
:1023900000600C49091F086001200B490866FFF71F
:1023A00093FB054606E0FFF78FFB401B022801D98F
:1023B00003200DE6034808380068C0F34060002899
:1023C000F1D03FE00838024000004742800E47420B
:1023D0000070004000201C490866FFF775FB0546A9
:1023E00006E0FFF771FB401B022801D90320EFE54F
:1023F00016480068C0F340600028F2D122E0A069CE
:10240000012800D1E4E51148001D066806F48001AA
:10241000E069814214D106F03F01206A81420FD168
:1024200047F6C0703040616A884209D106F44031F5
:10243000A06A814204D106F07061E06A814201D055
:102440000120C5E50020C3E50000474200380240F6
:102450007047704730B502460B4600BF92F83C000B
:10246000012801D1022030BD012082F83C0000BFCC
:10247000022082F83D00106844681068816824F0EA
:1024800070041868044310684460184D1068A8422E
:102490001BD01068B0F1804F17D0154D1068A842BE
:1024A00013D0144D1068A8420FD0134D1068A842E5
:1024B0000BD0124D1068A84207D0114D1068A842E9
:1024C00003D0104D1068A84205D121F08001586852
:1024D000014310688160012082F83D0000BF0020A8
:1024E00082F83C0000BF00BFBDE7000000000140D3
:1024F0000004004000080040000C004000040140BF
:10250000004001400018004010B504460CB90120FD
:1025100010BD94F83D0028B9002084F83C00204606
:1025200000F00CF8022084F83D00211D206801F025
:10253000F1F9012084F83D000020E9E738B50446B0
:102540000E492068884217D100BF002000900C4837
:10255000006840F004000A4908600846006800F07E
:102560000400009000BF00BF002205211E20FFF7DD
:1025700055FB1E20FFF742FB38BD0000000800405D
:10258000403802400146022081F83D00086880681A
:1025900000F00702062A05D00868006840F0010034
:1025A0000B681860012081F83D000020704701464B
:1025B0000868C06840F001000B68D860086880684F
:1025C00000F00702062A05D00868006840F0010004
:1025D0000B681860002070472DE9F04104460D4655
:1025E00000BF94F83C00012802D10220BDE8F08130
:1025F000012084F83C0000BF022084F83D002068E0
:10260000866826F0770626F47F462068866028686C
:10261000502833D00CDC202850D004DC00284BD0CC
:10262000102851D149E0302849D040284CD139E018
:1026300060282DD0702807D0B0F5805F03D0B0F5AA
:10264000005F41D10DE040E0D5E902136A682068DF
:1026500001F0CCF92068866846F07706206886602D
:1026600033E0D5E902136A68206801F0BFF92068F9
:10267000806840F480402168886026E0EA686968E4
:10268000206806F098FB5021206806F08BFB1CE0C8
:10269000EA686968206806F0A1FB6021206806F0FE
:1026A00081FB12E0EA686968206806F084FB40213B
:1026B000206806F077FB08E000BF00BF00BF296874
:1026C000206806F06FFB00E000BF00BF012084F827
:1026D0003D0000BF002084F83C0000BF00BF85E73C
:1026E000704710B5044620680069C0F34000D8B1B7
:1026F0002068C068C0F34000B0B16FF002002168EC
:102700000861012020772068806900F0030018B17B
:102710002046FFF7E5FF05E0204600F0ADF8204633
:1027200000F0ABF80020207720680069C0F380003B
:10273000D8B12068C068C0F38000B0B16FF0040069
:1027400021680861022020772068806900F44070C9
:1027500018B12046FFF7C4FF05E0204600F08CF8D2
:10276000204600F08AF80020207720680069C0F336
:10277000C000D8B12068C068C0F3C000B0B16FF02D
:10278000080021680861042020772068C06900F0F3
:10279000030018B12046FFF7A3FF05E0204600F034
:1027A0006BF8204600F069F8002020772068006967
:1027B000C0F30010D8B12068C068C0F30010B0B1F9
:1027C0006FF0100021680861082020772068C06938
:1027D00000F4407018B12046FFF782FF05E0204664
:1027E00000F04AF8204600F048F8002020772068E2
:1027F000006900F0010058B12068C06800F00100D5
:1028000030B16FF0010021680861204600F036F811
:1028100020680069C0F3C01058B12068C068C0F3D8
:10282000C01030B16FF08000216808612046FFF7CA
:102830000FFE20680069C0F3801058B12068C0689E
:10284000C0F3801030B16FF040002168086120466D
:1028500000F020F820680069C0F3401058B12068EB
:10286000C068C0F3401030B16FF0200021680861EB
:102870002046FFF7EEFD10BD7047704710B50446C7
:1028800003492068884201D1FFF724F910BD0000F8
:1028900000140040704770B5044600252068406968
:1028A000C0F3C01594F8390021280ED16DB120680D
:1028B000406920F0800021684861206B10B1206BD6
:1028C000FEF7ABFD204606F057FD20684069C0F3D7
:1028D000801594F83A0022280ED16DB12068406925
:1028E00020F0400021684861606B10B1606BFEF71A
:1028F00094FD204606F030FD002070BD70470000BA
:102900002DE9F0470446206805682068C6682068FD
:1029100047694FF00008C14605F00F08B8F1000FF5
:102920000AD105F0200038B106F0200020B1204681
:1029300006F084FCBDE8F087B8F1000F72D007F014
:10294000010018B906F4907000286BD005F0010062
:1029500030B106F4807018B1E06B40F00100E06324
:1029600005F0040030B107F0010018B1E06B40F051
:102970000200E06305F0020030B107F0010018B179
:10298000E06B40F00400E06305F0080048B106F099
:10299000200010B907F0010018B1E06B40F008000A
:1029A000E063E06B70B305F0200028B106F0200072
:1029B00010B1204606F042FC20684069C0F380193F
:1029C000E06B00F0080010B9B9F1000F23D02046E9
:1029D00006F0C2FC2068406900F04000402816D193
:1029E0002068406920F0400021684861606B50B168
:1029F0001748616B0865606BFEF764FD10B1606B92
:102A0000016D88470CE02046FFF778FF08E020467C
:102A1000FFF774FF04E02046FFF770FF0020E0633B
:102A200088E7FFE705F0800030B106F0800018B1BC
:102A3000204606F056FC7DE705F0400030B106F078
:102A4000400018B1204606F0C4FC73E700BF71E7F0
:102A5000F393000810B504460CB9012010BDA0691D
:102A600000B100E000BF94F8390028B9002084F8D4
:102A70003800204600F028F8242084F83900206827
:102A8000C06820F400502168C860204606F0E2F9D2
:102A90002068006920F4904021680861206840693E
:102AA00020F02A00216848612068C06840F4005086
:102AB0002168C8600020E063202084F8390084F891
:102AC0003A000020CAE7000010B586B00446142181
:102AD00001A8FDF734FCFE492068884274D100BF8C
:102AE00000200090FB48006840F40020F94908608D
:102AF0000846006800F40020009000BF00BF00BF3F
:102B000000200090F3481038006840F00100F149BF
:102B1000103908600846006800F00100009000BF0E
:102B200000BF0320019002200290012003900320A7
:102B300004900820059001A9E748FEF7B7FEE74892
:102B4000E7490860400548600021E5488160C160B0
:102B50004FF480610161002141618161C1610162C5
:102B60004162FEF7E3FD08B1FDF7FDFE00BFDC4862
:102B70006063846300BFD9483030DA4908604FF0A1
:102B8000006048604021D74881600021C1604FF457
:102B900080610161002141618161C1610162416225
:102BA000FEF7C4FD08B1FDF7DEFE00BFCD4820638F
:102BB000846300BF002205213420FFF72FF8342062
:102BC000FFF71CF8F0E1FFE7C7492068884278D199
:102BD00000BF00200090BF48001D006840F01000BA
:102BE000BC49091D08600846006800F0100000900C
:102BF00000BF00BF00BF00200090B648103800683A
:102C000040F00100B349103908600846006800F040
:102C10000100009000BF00BF4FF4C060019002208F
:102C2000029000200390032004900720059001A942
:102C3000A948FEF73BFEAD48AD4908604FF0006083
:102C400048600021AA488160C1604FF48061016141
:102C5000002141618161C16101624162FEF766FD4F
:102C600008B1FDF780FE00BFA1486063846300BF28
:102C70009E4878309F4908604FF0006048604021CE
:102C80009C4881600021C1604FF480610161002196
:102C900041618161C16101624162FEF747FD08B196
:102CA000FDF761FE00BF93482063846300BF0022EC
:102CB00005212520FEF7B2FF2520FEF79FFF73E1D7
:102CC000FFE78D492068884256D100BF0020009060
:102CD0008048006840F400307E490860084600687B
:102CE00000F40030009000BF00BF00BF0020009043
:102CF00078481038006840F00100764910390860C3
:102D00000846006800F00100009000BF00BF0C20E2
:102D100001900220029000200390032004900720DD
:102D2000059001A96C48FEF7C1FD6C484830734915
:102D300008604FF000604860002170488160C16009
:102D40004FF480610161002141618161C1610162D3
:102D50004162FEF7EBFC08B1FDF705FE00BF6748D6
:102D60006063846300BF002205212620FEF756FF22
:102D70002620FEF743FF17E161492068884277D19A
:102D800000BF002000905348006840F48020514963
:102D900008600846006800F48020009000BF00BF73
:102DA00000BF002000904B481038006840F002003F
:102DB0004849103908600846006800F00200009099
:102DC00000BF00BF4FF4406001900220029000203D
:102DD0000390032004900720059001A94948FEF7BD
:102DE00065FD3E481838484908604FF0006048606B
:102DF000002145488160C1604FF48061016100217C
:102E000041618161C16101624162FEF78FFC08B1DD
:102E1000FDF7A9FD00BF3C486063846300BF2F48F5
:102E200018303A4908604FF0006048604021374848
:102E300081600021C1604FF4806101610021416126
:102E40008161C16101624162FEF770FC08B1FDF76A
:102E50008AFD00BF2D482063846300BF0022114615
:102E60002720FEF7DBFE2720FEF7C8FE9CE0FFE7E9
:102E7000274920688842F9D100BF002000901548FA
:102E8000001D006840F020001249091D0860084636
:102E9000006800F02000009000BF00BF00BF0020CD
:102EA00000900C481038006840F0040009491039BF
:102EB00008600846006800F00400009000BF00BFF2
:102EC000C02001900220029000200390032021E006
:102ED000004C004040380240000002404060024088
:102EE00070060020D006002000100140406402401F
:102EF000300700209007002000440040F007002029
:102F0000004800400004024050080020B0080020A3
:102F10000014014004900820059001A92348FEF701
:102F2000C5FC2348234908608005486000212148EA
:102F30008160C1604FF48061016100214161816164
:102F4000C16101624162FEF7F1FB08B1FDF70BFDC3
:102F500000BF18486063846300BF15487830164985
:102F600008604FF0206048604021134881600021D4
:102F7000C1604FF480610161002141618161C161E3
:102F800001624162FEF7D2FB08B1FDF7ECFC00BF25
:102F900009482063846300BF002211464720FEF7E2
:102FA0003DFE4720FEF72AFE06B010BD0008024095
:102FB00028640240100900207009002077B581B014
:102FC0000446154694F83A00202850D1029800B1E2
:102FD00015B9012004B070BD00BF94F83800012875
:102FE00001D10220F6E7012084F8380000BF0298E2
:102FF000A062A5850020E063222084F83A001D48E5
:10300000616BC8631C48616B08641C48616BC864D1
:103010000020616B086502AE32682368191D2B46DB
:10302000606BFEF7F9FB00BF00200090206800688D
:10303000009020684068009000BF00BF00BF0020E3
:1030400084F8380000BF2068C06840F480702168B0
:10305000C8602068406940F001002168486120682C
:10306000406940F04000216848610020B2E702203A
:10307000B0E700008D9300084B930008058E000810
:1030800070477047704700BFFEE7000010B50E485C
:103090000E4908600320486000210C488160C1602F
:1030A0004FF4002101614FF440114161002101768C
:1030B00041768176C17601774177FDF78AFF08B1C5
:1030C000FDF751FC10BD000000640040A00400208A
:1030D00010B50E480E4908600320486000210C48D6
:1030E0008160C1604FF4002101614FF440114161E2
:1030F0000021017641768176C17601774177FDF72F
:1031000068FF08B1FDF72FFC10BD0000006800400B
:10311000C804002008B500BF0020009032480068B5
:1031200040F40010304908600846006800F40010C0
:10313000009000BF00BF00BF00200090084600685C
:1031400040F4800008600846006800F480000090A9
:1031500000BF00BF002211460C20FEF75FFD0C20CF
:10316000FEF74CFD002205210D20FEF757FD0D2036
:10317000FEF744FD002211460E20FEF74FFD0E2003
:10318000FEF73CFD002205210F20FEF747FD0F2032
:10319000FEF734FD002205211020FEF73FFD102030
:1031A000FEF72CFD002211463920FEF737FD3920AD
:1031B000FEF724FD002205213A20FEF72FFD3A20DC
:1031C000FEF71CFD002211464520FEF727FD452095
:1031D000FEF714FD002205214620FEF71FFD4620C4
:1031E000FEF70CFD08BD00003038024000B587B086
:1031F000142102A8FDF7A3F800BF00200190424867
:10320000006840F08000404908600846006800F00F
:103210008000019000BF00BF00BF00200190084661
:10322000006840F0040008600846006800F00400F0
:10323000019000BF00BF00BF002001900846006859
:1032400040F0010008600846006800F001000190AD
:1032500000BF00BF00BF002001900846006840F09A
:10326000020008600846006800F00200019000BFFC
:1032700000BF012221212548FEF720FC0022102159
:103280002248FEF71BFC012203212148FEF716FC11
:10329000002280211E48FEF711FC312002900120FF
:1032A000039004900020059002A91848FEF7FEFA4A
:1032B00004200290002003900120049002A91348EA
:1032C000FEF7F4FA102002900020039001200490F1
:1032D00002A91048FEF7EAFA832002900120039029
:1032E00004900020059002A90948FEF7DFFA4FF488
:1032F0005E700290002003900120049002A904480F
:10330000FEF7D4FA07B000BD303802400008024092
:10331000000402400000024000B587B00020039086
:10332000049005900690019002901448144908609A
:10333000532048600021124881604FF6FE71C16041
:10334000002101618161FFF7DFF808B1FDF70BFB98
:103350004FF48050039003A90948FFF73DF908B1E5
:10336000FDF701FB00200190029001A90448FFF73E
:1033700071F808B1FDF7F7FA07B000BD000800408A
:10338000F004002010B50B480B4908604FF4E13001
:103390004860002108488160C16001610C214161E1
:1033A00000218161C161FFF755FB08B1FDF7DBFA30
:1033B00010BD0000004C00403005002010B50B4847
:1033C0000B4908604FF4E1304860002108488160F3
:1033D000C16001610C21416100218161C161FFF780
:1033E00039FB08B1FDF7BFFA10BD00000010014025
:1033F0007005002010B50C480C4908600C48486066
:103400004FF48051094881600021C1604FF4806110
:1034100001610421416100218161C161FFF71AFB53
:1034200008B1FDF7A0FA10BD00440040B00500202F
:10343000A086010010B50B480B4908604FF4E1303D
:103440004860002108488160C16001610C21416130
:1034500000218161C161FFF7FDFA08B1FDF783FA30
:1034600010BD000000480040F005002010B50B48DA
:103470000B4908604FF4E130486000210848816042
:10348000C16001610C21416100218161C161FFF7CF
:10349000E1FA08B1FDF767FA10BD00000014014021
:1034A0003006002000BFFEE7704700000B48D0ED5B
:1034B000000AB7EE001A70EE810AC0ED000AD0EDE6
:1034C000000AF4EEC00AF1EE10FA05DBDFED040AA3
:1034D000C0ED000A012070470020FCE7D00000206A
:1034E0000000000000BF00F05BF90248006806F031
:1034F00043FBF8E7B800002010B500BF502080F370
:103500001188BFF34F8FBFF36F8F00BF07F098FE96
:1035100018B14FF080500449086000BF002080F3CC
:10352000118800BF10BD000004ED00E000B593B0AD
:10353000302107A8FCF703FF142102A8FCF7FFFEC7
:1035400000BF002001902448006840F080502249CC
:1035500008600846006800F08050019000BF00BF7E
:1035600000BF002001901D48006840F480401B49C6
:1035700008600846006800F48040019000BF00BF6A
:10358000012007900004089002200D9041050E9143
:1035900019210F914FF4A87110910221119104216A
:1035A000129107A8FEF710FD08B1FDF7DCF90F2016
:1035B000029002200390002004904FF4A050059048
:1035C0004FF480500690052102A8FEF79BFB08B13E
:1035D000FDF7C9F913B000BD40380240007000404B
:1035E0000548006840F47000034908604FF000602F
:1035F000014980390860704788ED00E010B502216C
:103600004D4800F0FFF94D4B40224D494D4800F028
:103610004DFA4D4B40224D494D4800F047FA4D4B75
:1036200040224D494D4800F041FA4D4B40224D4952
:103630004D4800F03BFA4D4B40224D494D4800F0BB
:1036400035FA4D494D48FDF7FFF84D494D48FDF716
:10365000FBF840F2FF334FF4807200214748FDF73A
:10366000BBF840F2FF3340F2011208214348FDF756
:10367000B3F840F2FF334FF4817210213F48FDF759
:10368000ABF840F2FF3340F2012278213D48FDF7CC
:10369000A3F840F2FF3340F2022280213948FDF7BF
:1036A0009BF840F2FF3340F2032288213548FDF7B2
:1036B00093F840F2FF334FF4017290213148FDF747
:1036C0008BF840F2FF3340F2072298212D48FDF796
:1036D00083F840F2FF3340F20522A0212948FDF78C
:1036E0007BF840F2FF3340F20622A8212548FDF77F
:1036F00073F800221021042007F0A2F92249086083
:1037000000220521042007F09BF9204908600022CF
:103710001021042007F094F91D49086000220821B7
:10372000022007F08DF91B4908601B4802F0D0FE0B
:103730001A4803F0C1F910BDF0040020DD4600086E
:103740006003002070050020E5460008A00300206B
:10375000B0050020ED460008E0030020F005002041
:10376000F546000820040020300500201D47000811
:103770006004002030060020B1460008A0040020AC
:10378000B5460008C8040020A4000020A8000020BE
:10379000AC000020B000002014020020A000002097
:1037A0001CB507F04BF82C48072100234FF480721A
:1037B000CDE9001029A12C4807F008FC2B48052171
:1037C00000234FF48072CDE9001029A12A4807F0A8
:1037D000FDFB2A48052100234FF48072CDE900103B
:1037E00027A12A4807F0F2FB2948062100234FF4BD
:1037F0008072CDE9001027A1294807F0E7FB29488E
:10380000052100234FF48072CDE9001026A12A483B
:1038100007F0DCFB2948052100234FF48072CDE935
:10382000001027A12A4807F0D1FB2A4805210023D0
:103830008022CDE9001028A12B4807F0C7FB07F034
:10384000A3FE38B94FF0805028490860BFF34F8F6E
:10385000BFF36F8F1CBD000000000020546F705F2D
:10386000504F5354000000009D4700080400002002
:10387000546F705F436F6D004D47000808000020D3
:10388000416374696F6E5F4374726C00753D00082C
:103890000C000020426F6172645F436F6D00000096
:1038A000F9470008100000204D6F64655F53656C98
:1038B000656374696F6E00002545000814000020E0
:1038C0004F66666C696E655F4374726C0000000041
:1038D000ED4300081800002053797374656D5F5242
:1038E00065736574000000004944000804ED00E0C1
:1038F00010B50348FEF7F5FE00F0F6F910BD000024
:10390000F004002010B50248FEF7EBFE10BD0000E9
:10391000240C002010B50268294B98420ED0B0F15B
:10392000804F0BD0274B984208D0274B984205D0A8
:10393000264B984202D0264B984203D122F07002C7
:103940004B681A431E4B984220D0B0F1804F1DD0D7
:103950001C4B98421AD01C4B984217D01B4B9842D4
:1039600014D01B4B984211D01A4B98420ED01A4BD0
:1039700098420BD0194B984208D0194B984205D069
:10398000184B984202D0184B984203D122F440724F
:10399000CB681A4322F080034C6943EA04020260B8
:1039A0008B68C3620B688362054B984202D0084B58
:1039B000984201D10B6903630123436110BD0000EC
:1039C000000001400004004000080040000C0040DE
:1039D0000004014000400140004401400048014013
:1039E00000180040001C00400020004030B50C468C
:1039F000816821F47F4142EA032525432943816000
:103A000030BD000070B504460D46094804600571DC
:103A100001460868FEF7CBFD08B1FCF7A7FF044993
:103A20000868FEF7AFFD08B1FCF7A0FF70BD00000D
:103A30004001002010B50348FEF762FF024800F085
:103A40001FF910BD300500207053002010B5034849
:103A5000FEF756FF024800F013F910BD7005002074
:103A60009053002010B50348FEF74AFF024800F0CB
:103A700007F910BDB0050020A053002010B5034881
:103A8000FEF73EFF024800F0FBF810BDF0050020F5
:103A9000B053002010B50348FEF732FF024800F093
:103AA000EFF810BD30060020C0530020F8B50446E2
:103AB0000E4615461F460CB9FCF756FF64492068B0
:103AC00088421CD16348866001468D800460C760CF
:103AD00000BF0020009020680068009020684068C7
:103AE000009000BF00BF2068C06840F0100021684F
:103AF000C860AAB231462046FFF760FAA6E05649F0
:103B0000206888421CD15548866001468D8004603B
:103B1000C76000BF00200090206800680090206807
:103B20004068009000BF00BF2068C06840F01000EF
:103B30002168C860AAB231462046FFF73FFA85E007
:103B40004749206888421CD14648866001468D80DE
:103B50000460C7602068C06840F010002168C86039
:103B600000BF002000902068006800902068406836
:103B7000009000BF00BFAAB231462046FFF71EFAF0
:103B800064E03949206888421CD138488660014683
:103B90008D800460C7602068C06840F01000216814
:103BA000C86000BF00200090206800680090206876
:103BB0004068009000BF00BFAAB231462046FFF720
:103BC000FDF943E02A49206888421CD129488660D3
:103BD00001468D800460C76000BF0020009020680F
:103BE0000068009020684068009000BF00BF206817
:103BF000C06840F010002168C860AAB23146204673
:103C0000FFF7DCF922E01C49206888421CD11B48E0
:103C1000866001468D800460C76000BF0020009070
:103C200020680068009020684068009000BF00BFD6
:103C30002068C06840F010002168C860AAB2314610
:103C40002046FFF7BBF901E0FCF78EFEF8BD00004F
:103C5000004C004070530020005000408053002072
:103C6000001001409053002000440040A053002069
:103C700000480040B053002000140140C053002011
:103C800010B50446206800680068C0F3001010B149
:103C9000204600F001F810BD38B5044600BF0020F2
:103CA0000090206800680068009020680068406804
:103CB000009000BF00BF2068FEF7EDFDA0882168DE
:103CC000496B09684968401A06490880E06818B1DC
:103CD0000988D4E902029047A288A1682068FFF70A
:103CE0006DF938BD3801002002480068401C0149C8
:103CF000086070473C01002000BFFEE70146081F36
:103D00000E2832D2DFE800F02825221C1F161907E2
:103D10000A0D10132B2E1648807870471448C0786F
:103D2000FBE713480079F8E711484079F5E71048B8
:103D30008079F2E70E48C079EFE70D48007AECE7AA
:103D40000B48407AE9E70A48807AE6E70848C07AF3
:103D5000E3E70748007BE0E70548407BDDE70448F0
:103D6000807BDAE70248C07BD7E76420D5E7000014
:103D7000640C00200E48007800F0010050B90C4897
:103D800005F0A1FD30B107F055FA0A49086008486E
:103D9000AFF3008000BF084802F0F0FA074803F0D4
:103DA000A7F907480168034806F0DEFBF3E70000C7
:103DB0005000002054000020240300203003002085
:103DC0005800002010B500F0F5F90520FFF796FF28
:103DD00030B10420FFF792FF10B1ED4803F050F925
:103DE000EC48007848B10B20FFF788FF28B915216F
:103DF000E74881740020E7490870E648407848B1F8
:103E00000B20FFF77BFF28B91221E14881740020C5
:103E1000E0494870DF48807848B10B20FFF76EFF1B
:103E200028B91121DA4881740020DA498870D9480C
:103E3000C07848B10C20FFF761FF28B90220D449AF
:103E400008740020D349C870D248007948B10C20CA
:103E5000FFF754FF28B90320CD4908740020CD494D
:103E60000871CC48407948B10C20FFF747FF28B9CA
:103E70000520C74908740020C6494871C5488079A3
:103E800048B10D20FFF73AFF28B90921C048417415
:103E90000020C0498871BF48C07948B10D20FFF7A4
:103EA0002DFF28B90B21BA4841740020B949C871C7
:103EB000B848007A48B10D20FFF720FF28B90A2141
:103EC000B34841740020B3490872B248407A30B117
:103ED0000E20FFF713FF10B90020AE494872AD481D
:103EE000407A40B1AB48807F28B1AB4802F014FA69
:103EF0000020A8494872A748407A48B1A54890F8E0
:103F0000210028B1A44802F02BFA0020A1494872F0
:103F1000A048807A48B10E20FFF7F0FE28B99E48ED
:103F200002F006FA00209B4988729A48C07A48B18C
:103F30000E20FFF7E3FE28B9974802F006FA0020AA
:103F40009449C8729348007B48B10F20FFF7D6FE12
:103F500028B9914802F0F1F900208E4908738D4884
:103F6000407B48B10F20FFF7C9FE28B98A4802F00C
:103F7000E9F90020874948738648807B30B10F20DB
:103F8000FFF7BCFE10B90020824988738148C07BCE
:103F900060B10920FFF7B2FE40B9804804F080F814
:103FA00017217B48C17400207A49C873092000F0AA
:103FB0008BFA022809D100217548C174784880F82D
:103FC0000C110321754804F021F8092000F07CFA57
:103FD000032809D100216E48C174714880F80C1182
:103FE00001216E4804F012F86A48807C48B10A202A
:103FF000FFF784FE28B9664802F020FE00206549DC
:1040000088746448007D48B10A20FFF777FE28B91C
:10401000644802F071FD00205E4908755D48407DEE
:1040200048B10720FFF76AFE28B9594802F022FF7D
:104030000020584948755748807D30B10720FFF768
:104040005DFE10B90020534988755248C07D48B1C3
:104050000720FFF753FE28B9524802F06DFD0020FB
:104060004C49C8754B48007E30B10820FFF746FE2A
:1040700010B90020474908764648407E48B10820DC
:10408000FFF73CFE28B9424803F01CF800204149E4
:1040900048764048807E48B10820FFF72FFE28B9B7
:1040A0003B4802F069FF00203A4988760820FFF774
:1040B00025FE50B10520FFF721FE30B10420FFF7A7
:1040C0001DFE10B10120384908703248C07E30B161
:1040D0000620FFF713FE10B900202E49C8762D48A0
:1040E000007F48B10620FFF709FE28B92A4802F0F0
:1040F00031F90020274908772648407F48B106203B
:10410000FFF7FCFD28B916212148817400202149C0
:1041100048772048807F48B11020FFF7EFFD28B98D
:1041200001202249087100201A4988771948C07F68
:1041300048B11020FFF7E2FD28B9154802F0B0FEA3
:1041400000201449C877134890F8200078B1102057
:10415000FFF7D4FD58B9104800F074FD0C4802F088
:1041600067FE0020124908740A4981F820000948B6
:1041700090F8210050B11120FFF7C0FD30B90220A6
:104180000A4908710020034981F8210010BD000090
:1041900030030020740C00202403002014030020AE
:1041A00014020020A0000020B4000020C000002065
:1041B0004803002000B50B2000F086F9012801D14A
:1041C000894908700B2000F07FF9022802D10120F4
:1041D000854948700B2000F077F9032802D10120AF
:1041E000814988700C2000F06FF9012801D17E49C7
:1041F000C8700C2000F068F9022802D101207A4929
:1042000008710C2000F060F9032802D101207649E2
:1042100048710D2000F058F9012801D172498871C8
:104220000D2000F051F9022802D101206E49C87119
:104230000D2000F049F9032802D101206A490872D3
:104240000E2000F041F9012801D1674948720E2083
:1042500000F03AF9022802D10120634988720E2049
:1042600000F032F9032802D101205F49C8720F2003
:1042700000F02AF9012801D15B4908730F2000F0F2
:1042800023F9022802D10120574948730F2000F07A
:104290001BF9032802D1012053498873092000F03B
:1042A00013F9012801D15049C873092000F00CF915
:1042B000022802D101204C490874092000F004F9B9
:1042C000032802D10120484948740A2000F0FCF874
:1042D000012801D1444988740A2000F0F5F8022829
:1042E00002D101204049C8740A2000F0EDF80328EB
:1042F00002D101203C490875072000F0E5F80128AB
:1043000001D139494875072000F0DEF8022802D1B2
:10431000012035498875072000F0D6F8032802D11E
:1043200001203149C875082000F0CEF8012801D1DC
:104330002D490876082000F0C7F8022802D1012094
:1043400029494876082000F0BFF8032802D101204F
:1043500025498876062000F0B7F8012801D12249C6
:10436000C876062000F0B0F8022802D101201E49CC
:104370000877062000F0A8F8032802D101201A4986
:104380004877102000F0A0F8012801D1164988775D
:10439000102000F099F8022802D101201249C877B4
:1043A000102000F091F8032803D101200E4981F874
:1043B0002000112000F088F8012802D10A4981F874
:1043C0002100112000F080F8022803D101200649C5
:1043D00081F82200112000F077F8032803D1012092
:1043E000014981F8230000BD740C002011480078B9
:1043F00000F0010050B90F4805F065FA30B106F041
:1044000019FF0D4908600B48AFF3008000BF0B484F
:104410000022511E0368104606F0B6FF012802D1A3
:10442000074802F02DFE07480168034806F09CF893
:10443000EDE7000078000020800000207C000020D4
:1044400030030020840000201948007800F00100AB
:1044500050B9174805F037FA30B106F0EBFE1549B0
:1044600008601348AFF3008000BF134800780128AC
:1044700017D1124802F004FE11480068401C104990
:10448000086008460068B0F57A7F0AD1012080F301
:10449000138800BFFDF714FC002009490860064995
:1044A000087008480168034806F05EF8DDE7000080
:1044B000880000208C000020B40000203003002081
:1044C000940000209000002000B503461846FFF736
:1044D00015FC48B10420FFF711FC28B10520FFF7B7
:1044E0000DFC08B9022000BD1846FFF707FC48B1D3
:1044F0000420FFF703FC28B90520FFF7FFFB08B1F4
:104500000320F0E71846FFF7F9FB48B10420FFF756
:10451000F5FB28B90520FFF7F1FB08B90120E2E718
:104520000020E0E71548007800F0010050B913487A
:1045300005F0C9F930B106F07DFE114908600F4859
:10454000AFF3008000BF0F48007838B900231A4647
:1045500019460D48006806F0C9FD08E00948407892
:10456000012802D100F06AF801E0FFF72BFC0748B0
:104570000168034805F0F8FFE5E700006C00002043
:1045800070000020640C0020140000207400002043
:10459000002935D04278274B9A708278DA70C27839
:1045A0001A7102799A714279DA7182791A72C27932
:1045B0001A73027A5A73427A9A72827A5A71C27A5A
:1045C0005A72027B9A73427B5A70827BDA73C27B87
:1045D000DA72027C1A70427C174B1A70C27C5A70D5
:1045E000027EC37D42EA032200EE102AB8EEC00A22
:1045F000BDEEC00A10EE102A12B20F4B5A8015E021
:1046000000220C4B9A70DA701A719A71DA711A7270
:104610001A735A739A725A715A72DA729A73DA73F7
:104620001A705A70044B1A705A705A800022024B4A
:104630001A717047640C0020C000002010B5FFF70D
:10464000B9FD0920FFF740FF0920FFF73DFF0228D1
:1046500004D101221146154802F074FE0920FFF72B
:1046600033FF032804D103220121104802F06AFE1F
:104670000920FFF729FF0A20FFF726FF0A20FFF78E
:1046800023FF022804D101220221084802F05AFE29
:104690000A20FFF719FF032804D10322022103484F
:1046A00002F050FE0A20FFF70FFF10BDB4020020F9
:1046B0007047000070B50446208800F40070B0F523
:1046C000007F07D125682A4604F11C01024801F049
:1046D000DDFF00BF70BD00001402002002464FF055
:1046E000FF30704702464FF0FF30704702464FF0F0
:1046F000FF30704770B504460D460748006838B172
:1047000000231A4621460448006806F0E9FA70BD05
:104710004FF0FF30FBE70000A800002070B5044612
:104720000D462078192809D1607E1E2806D1012166
:104730002046FFF72DFF4FF0FF3070BD00212046CF
:10474000FFF726FF4FF0FF30F7E700000E48007834
:1047500000F0010050B90C4805F0B5F830B106F092
:1047600069FD0A4908600848AFF3008000BF0848A7
:1047700002F06EFD074802F085F80748016803481B
:1047800005F0F2FEF3E7000044000020480000209E
:1047900098000020140200204C00002011480078EE
:1047A00000F0010050B90F4805F08DF830B106F067
:1047B00041FD0D4908600B48AFF3008000BF0B4876
:1047C0000022511E0368104606F0DEFD012802D1CA
:1047D000074802F0A5FF07480168034805F0C4FE3A
:1047E000EDE70000340000203C00002038000020ED
:1047F000B4020020400000201CB53348007800F0CF
:10480000010050B9304805F05EF830B106F012FDF5
:104810002E4908602C48AFF3008000BF00F066F816
:104820002B48694602682B48006806F0D5FA012833
:1048300043D1294840F6B83306C80020591A9041A0
:104840001DD308236A4659012448FCF729F801289A
:104850000CD02149D1E90040621C40F10000C1E9BF
:10486000002000211E4880F8081122E001211C4888
:1048700080F808110021184A1160516019E01648AB
:1048800041F288310CC80020891A98410DD30021CB
:10489000134880F808111048D0E90020521C40F15C
:1048A00000000D49C1E9002003E000200A4A106021
:1048B00050600C48DDE9001206C00B48016803484F
:1048C00005F052FEAAE700005C0000206400002012
:1048D00060000020B000002028000020A00400207C
:1048E000140200201C000020680000201CB5244891
:1048F000D0EDE30A9FED231A80EE810ADFED220A54
:1049000020EE200ABCEEC00A10EE100AC0B28DF8EC
:1049100000001E48D0ED030A9FED1A1A80EE810AAE
:10492000DFED190A20EE200ABCEEC00A10EE100AD4
:10493000C0B28DF801001648007C8DF802001548C1
:1049400000F084FF8DF80300134840788DF80400D0
:10495000114880788DF805000F48C0788DF8060062
:104960000E4890F80C018DF807000D48006830B132
:1049700000231A4669460A48006806F0DDF81CBDA7
:10498000C00D002000CF19490000C84220120020AD
:104990004803002024030020A0000020140200206F
:1049A000B0000020CA788B7842EA032212B28284D7
:1049B000704700000E4A026001719FED0E0A80ED03
:1049C000020A9FED0C0A80ED040A9FED0A0A80EDB1
:1049D000050A9FED080A80ED060A00220277C283CD
:1049E000026200BF044A0260002282847047000015
:1049F000D0B70008000000003CB7000800BF00BFAF
:104A000000BF704770B505460C462146284604F0A5
:104A1000CDFE21462846FFF7C5FF6079217940EA9F
:104A2000012000B2E88470BD70B504460D462946E9
:104A30002046FFF7BFFF0446024820600020E084C4
:104A4000204670BD68B7000810B504462046FFF741
:104A5000D5FF044610BD70B505460C4621462846D4
:104A600004F0A4FE21462846FFF79CFF60792179D7
:104A700040EA012000B22885A07985F8260070BDA3
:104A800070B504460D4629462046FFF793FF0446BD
:104A900003482060002084F826002085204670BD51
:104AA0009CB7000810B504462046FFF7A7FF044650
:104AB00010BD000070B504461A48006860B3606815
:104AC00028B91848006880476060012070BD15480B
:104AD0000068804705466068A8420AD96068C0F14E
:104AE000FF30284400EE100AB8EE400A84ED000AB8
:104AF00007E06068281A00EE100AB8EE400A84ED5C
:104B0000000A656094ED000ADFED070A20EE200A36
:104B100084ED000A0020D9E79FED040A84ED000A25
:104B20000120D3E7D4000020BD3786350000000007
:104B3000014619B102480160012070470020FCE7DE
:104B4000D400002010B50446207824490979884211
:104B500011D0234890EDE30A10EE101A0846FBF737
:104B6000C7FCC4E90201204600F03EF81B4800796A
:104B70002070022010BD2078B8B91A4802F0C6FD96
:104B800088B1174890EDE30A10EE101A0846FBF7BB
:104B9000AFFCC4E90201204600F026F80F48007976
:104BA00020700220E6E70020E4E70E4802F028FE2D
:104BB00088B10B4890EDE30A10EE101A0846FBF797
:104BC00097FCC4E90201204600F00EF80348007982
:104BD00020700220CEE70120CCE7000098000020E2
:104BE000C00D0020B402002010B5114C0021D0E906
:104BF0000223A21A994101D3002101740C4C002117
:104C0000D0E90232E31A914108D20A4BD0E90241BD
:104C1000E31A71F1000101D201210174054BD0E9C1
:104C20000241E31A71F1000101D30221017410BDA8
:104C300090D6020010F1080001490979017070470F
:104C40009800002000214170C170017001718170D5
:104C50004171704710B50446E07829287BD2DFE81F
:104C600000F0151819F01CCA7A7A38EF25EE7A7A16
:104C7000667A558CEDB3ECEB7A47EA7AE9E89AE785
:104C8000E6E57B7AE47A7AE3E2E1FD0000216172F5
:104C900031E230E2607AE0702DE2002060700A209C
:104CA000E07000202070A070607124E20A2161721F
:104CB000F94801F097FFF94802F01AFEF74802F0B0
:104CC00051FE28B1F6480079012801D10820E07092
:104CD00011E208216172F04801F084FFEF4802F010
:104CE00099FDEE4802F020FE08B11720E07002E2C4
:104CF00017216172E948383803F0A2FBE7483838D9
:104D000003F06AFB08B11020E070F4E11021617239
:104D1000E248A03803F0BAFBE048A03803F008FEF0
:104D200020B1DF48007908B10E20E070E3E10E21E8
:104D30006172DA48A03803F093FBD848A03803F03A
:104D4000EDFD08B12020E070D5480079022801D19E
:104D50001020E070CFE1CAE120216172CE4801F05D
:104D600035FFCE48603003F03BF99FEDCE0AFEF7E9
:104D70009DFB08B11120E070BDE111216172C748AF
:104D8000A03803F083FBC548A03803F0D1FD08B17B
:104D90001C20E070AFE11C216172C148007930B184
:104DA000012805D0022806D003280BD109E009E02C
:104DB0001320E07006E0B84801F014FF2820E070EE
:104DC00000E000BF00BF96E113216172B34838389C
:104DD00003F0A4FAB148A03803F0F2FCAF48A038C1
:104DE00003F09AFE30B1AD48383803F0BBFA08B191
:104DF0000520E0707FE105216172AB48007C10B1B5
:104E0000012826D11EE0A54802F0DEFCA34802F0EE
:104E1000EDFC28B1A2480079032801D10920E070F7
:104E20001AE01BE022E01DE1BEE0D7E086E051E0A1
:104E300076E0F8E0C4E0DEE006E193E034E039E15A
:104E400026E01EE196480079032801D10920E07090
:104E500002E00020E07000BF00BF4CE12821617239
:104E60008D4801F0BFFE2720E07044E127216172E8
:104E70008A48A03803F00AFB8848A03803F058FDA0
:104E800028B187480079012801D10E20E07032E175
:104E900009216172814802F0E1FC804802F04EFD78
:104EA00008B11220E07026E1122161727B48A0381F
:104EB00003F0ECFA7948603003F0F2F877483838BC
:104EC00003F0BEFA7548A03803F032FD08B11D208A
:104ED000E07010E11E21617201217048A03880F855
:104EE0000C1100F5807003F0DBF86D4801786B4819
:104EF000603003F08BF808B11D20E070684800793D
:104F0000022801D11D20E07065480079012806D1F2
:104F100000216248A03880F80C111F20E070EAE000
:104F20001D21617200215D48A03880F80C115C4899
:104F30000079012801D11F20E070DCE01F2161729F
:104F400000215648A03880F80C11012100F580702E
:104F500003F05CF89FED550AFEF7A8FA08B114209B
:104F6000E070C8E0142161724C48A03803F0AAFC3C
:104F70004A48603003F034F84848A03803F0ECFDAC
:104F800040B147480079012804D100204449087104
:104F90002520E07042480079012804D100204049D2
:104FA00008712520E070A6E0252161723A4801F0E1
:104FB00019FE3B480079012801D11A20E0709AE0DF
:104FC0001A2161723548383803F0F4F9334838381B
:104FD00003F00CFA08B12220E0708CE0222161720B
:104FE0002D4801F0F3FD9FED320AFEF75FFA08B19C
:104FF0001820E0707FE0182161722848383803F0EB
:105000001FFA2648383803F0E7F928B12448007918
:10501000012801D11B20E07021480079022801D12C
:105020002520E07067E01B2161721B4801F0DAFD6A
:105030001A48383803F084F91848383803F09CF9D6
:1050400008B11520E07056E0152161721348A038B0
:1050500003F078FC1148A03803F054FD08B1262075
:10506000E07048E0262161720C48383803F068F996
:10507000094801F0B7FD0C48FFF7DEFD0320E070A2
:1050800039E0032161729FED070AFEF70FFA08B1BC
:105090000B20E0702FE00000A0000020B4020020F0
:1050A000C00000200000FA43480300200000A04296
:1050B000000096430B2161721048FFF743FD20B1B9
:1050C000012806D002280FD107E00D4802F07AFD32
:1050D0000BE00B4802F0B0FB07E0094802F064FD6A
:1050E0002046FFF7AFFD00E000BF00BF03E0204611
:1050F000FFF7A8FD00BF00BF10BD0000480300205F
:10510000B402002010B50446607829287BD2DFE87D
:1051100000F0151819F41C7AE6F3377A247AF2F1C4
:10512000667A548C7A7A7AF0467A7ACA7A7A9A7A55
:105130007A7A7B7A7AEFEE7A7AB8B0000021E17160
:105140009DE19CE1E079607099E10A2060700020A7
:10515000E0702070A070607191E10A21E171C9488E
:1051600001F040FDC84802F0C3FBC74802F0FAFB5B
:1051700028B1C6480079012801D1082060707EE17D
:105180000821E171BF4801F02DFDBF4802F042FB4C
:10519000BD4802F0C9FB08B1162060706FE116210E
:1051A000E171B948383803F04BF9B748383803F0A3
:1051B00013F908B11020607061E11021E171B2486B
:1051C000A03803F063F9B048A03803F0B1FB28B170
:1051D000AE480079012801D10E2060704FE10E2108
:1051E000E171A948A03803F03BF9A748A03803F0C3
:1051F00095FB08B120206070A4480079022801D1F5
:10520000102060703BE136E12021E1719D4801F002
:10521000DDFC9D48603002F0E3FE9FED9D0AFEF745
:1052200045F908B11120607029E11121E17196481A
:10523000A03803F02BF99448A03803F079FB08B1AB
:105240001C2060701BE11C21E1719048007920B1A5
:10525000012803D002280AD103E008E01920607079
:1052600005E0884801F0BEFC2820607000BF00BF48
:1052700005E12821E171834801F0B4FC272060702A
:10528000FDE02721E1718048A03803F0FFF87E4857
:10529000A03803F04DFB28B17C480079012801D1EA
:1052A0000E206070EBE01921E1717748383803F087
:1052B00035F87548383803F055F878B17548007CF2
:1052C00010B1012806D102E00620607005E006203A
:1052D000607002E00020607000BF00BFCFE00621D8
:1052E000E1716C48007C48B1012814D109E049E023
:1052F000B3E013E091E070E022E060E01520607020
:105300000AE0614802F086FA5F4802F00DFB08B13E
:105310001520607000E000BF00BFB0E01521E17112
:105320005948603002F0BCFE5748A03803F00AFB31
:105330005548A03803F0E6FB08B1072060709EE0F6
:105340000721E1715348007C10B1012817D10EE00C
:105350004D4802F039FA4C4802F048FA30B19FED5E
:105360004E0AFEF7A3F808B12420607008E09FED14
:105370004A0AFEF79BF808B12420607000E000BFE5
:1053800000BF7CE02421E1713E4801F02BFC9FED41
:10539000400AFEF78BF888B13E48007C10B1012826
:1053A00008D103E001203B49087404E00220394998
:1053B000087400E000BF00BF032060705FE00321BD
:1053C000E1713148383802F0BBFF9FED310AFEF73A
:1053D0006DF808B10C20607051E00C21E1712A4891
:1053E000383802F0ADFF2B48FFF7ACFB20B10128A5
:1053F00006D002280ED107E0234802F0E3FB0AE0C2
:10540000214802F019FA06E01F4802F0CDFB0D20FA
:10541000607000E000BF00BF31E00D21E1711A486B
:10542000383802F08DFF1B48FFF78CFB20B10128B4
:1054300006D002280ED107E0134802F0C3FB0AE0B1
:10544000114802F0F9F906E00F4802F0ADFB232005
:10545000607000E000BF00BF11E02321E1719FED0B
:105460000F0AFEF723F828B1064801F0AFFB2046EB
:10547000FFF7E8FB03E02046FFF7E4FB00BF00BFB7
:1054800010BD0000A0000020B4020020C0000020D9
:105490000000FA4348030020000048430000964300
:1054A00010B50446A078272877D2DFE800F014175B
:1054B00018FD1B764476767776FC257676837676AD
:1054C0007676E4FBFA767676F9F876C29CD0766941
:1054D000F77676F6F50000212172A7E1A6E1207AA1
:1054E000A070A3E100206070E070207020710C209B
:1054F000A0700020607199E10C212172CC4801F06C
:1055000071FBCC48FFF71EFB20B1012806D0022812
:105510000ED107E0C84802F055FB0AE0C64802F089
:105520008BF906E0C44802F03FFB0620A07000E0C3
:1055300000BF00BF7AE106212172BD4801F052FB95
:10554000BC48007C012802D0022814D109E0BA48E6
:1055500002F038FBB84802F0D9F808B12120A07059
:105560000CE0B54802F096F9B34802F089F908B1A9
:105570002120A07002E00020A07000BF00BF55E114
:1055800021212172AA4801F021FB9FEDAC0AFDF711
:105590008DFF08B10920A07048E143E10921217283
:1055A000A54802F05BF9A44802F0C8F908B10F2041
:1055B000A0703BE10F2121729F48383802F030FF84
:1055C0009D48603002F06CFD9B48A03802F05EFF01
:1055D0009948A03803F0ACF920B10020984908712F
:1055E0001D20A07022E11E21217201219248A038C5
:1055F00080F80C1100F5807002F052FD904801789F
:105600008D48603002F002FD08B11D20A0708C486A
:105610000079022801D11D20A07089480079012855
:1056200006D100218448A03880F80C111F20A070FA
:10563000FCE01D21217200217F48A03880F80C1168
:105640007F480079012801D11F20A070EEE01F21C2
:10565000217200217848A03880F80C11012100F552
:10566000807002F0D3FC9FED770AFDF71FFF08B1B1
:105670001420A070DAE0142121726F48A03803F0E2
:1056800021F96D48603002F0ABFC6B48A03803F0A4
:1056900063FA90B16A4808E07BE018E035E059E031
:1056A00021E03FE067E0A0E095E00079012804D127
:1056B0000020634908712520A07061480079012805
:1056C00004D100205E4908712520A070AEE025219C
:1056D0002172574801F086FA59480079012801D112
:1056E0001A20A070A2E01A2121725348383802F023
:1056F00061FE5148A03802F055FF4F48383802F09B
:1057000075FE08B12220A07090E022212172484845
:1057100001F05CFA9FED490AFDF7C8FE08B11620BA
:10572000A07083E0162121724348383802F078FED9
:105730004148383802F034FE28B141480079012848
:1057400001D11B20A0703E480079022801D12520FC
:10575000A0706BE01B212172354801F043FA3648F6
:10576000383802F0EDFD3448383802F005FE08B153
:105770001520A0705AE0152121722F48A03803F09F
:10578000E1F82D48A03803F0BDF908B12620A0703B
:105790004CE0262121722848383802F0D1FD2448F7
:1057A00001F020FA2348FFF747FA2248007C20B195
:1057B000012803D0022809D104E008E000201D4997
:1057C000087404E001201B49087400E000BF00BF1A
:1057D0000320A0702AE0032121729FED1B0AFDF730
:1057E00065FE08B10B20A07020E00B21217211484A
:1057F000FFF7A8F920B1012806D002280FD107E051
:105800000D4802F0DFF90BE00B4802F015F807E055
:10581000094802F0C9F92046FFF714FA00E000BF7A
:1058200000BF03E02046FFF70DFA00BF00BF10BD28
:10583000A000002048030020B4020020000096438E
:10584000C00000200000A0420000FA430146487852
:1058500008B101207047C87808B10220FAE708783B
:1058600008B10320F6E7087908B10420F2E7887848
:1058700008B10520EEE7487908B10520EAE70020E5
:10588000E8E7000010B5044620780E2843D00ADC73
:105890000E2877D2DFE800F01C1F20F323D57676A0
:1058A0002C767676F2F120284DD008DC11285BD0DA
:1058B000152868D0192867D01C2863D165E02328F3
:1058C00071D0242870D027287ED02828F5D173E005
:1058D0000020A07151E150E1A07920704DE100203D
:1058E0006070E070082020700020A070607144E1BA
:1058F0000820A071A24801F075F9A24801F0E6FF66
:10590000A048383802F00AFD9E4802F021F808B19C
:105910000E20207031E10E20A0719A48A03802F0CC
:10592000E7FF9848A03803F021F928B1964800799C
:10593000012801D12020207093480079022801D14C
:105940002820207019E12020A0718D4801F03EF937
:105950008C48603002F044FB9FED8C0AFDF7A6FDF9
:1059600008B11120207008E11120A0718548A038ED
:1059700002F08CFD8348A03802F0DAFF08B11C2049
:105980002070FAE0F5E04AE030E01C20A0717E488B
:10599000007920B1012803D002280AD106E009E0ED
:1059A0001920207006E0D6E06FE00DE0282020707E
:1059B00000BF00BF00BFE0E02820A071704801F0E8
:1059C00011F927202070D8E02720A0716D48A03859
:1059D00002F05CFD6B48A03802F0AAFF28B16A48CB
:1059E0000079012801D10E202070C6E01920A07195
:1059F0006448383802F092FC6248383802F0B2FC51
:105A000060B16348007C032803D06148007C022811
:105A100002D10020207001E015202070ADE015209B
:105A2000A0715848A03802F08DFF5648603002F04F
:105A300037FB5448A03803F065F808B10520207002
:105A40009BE00520A0715248007C10B1012817D1BD
:105A500009E04C4801F0B8FE4A4801F0C7FE08B121
:105A6000242020700FE0474801F0D4FE454801F0A3
:105A70005BFF08B12420207005E050E02FE024E017
:105A80000020207000BF00BF77E02420A0714048B4
:105A9000FFF7D2F83A4801F0A5F89FED3E0AFDF76E
:105AA00005FD88B13A48007C10B1012808D103E017
:105AB00001203749087404E002203549087400E0E9
:105AC00000BF00BF0320207057E00320A0719FEDAE
:105AD000320AFDF7EBFC08B10C2020704DE00C20E1
